:107000005EC0000091C0000075C0000073C00000A9
:1070100071C000006FC000006DC000006BC00000B8
:1070200069C0000067C0000065C0000063C00000C8
:1070300061C000005FC000005DC000005BC00000D8
:1070400059C0000057C0000055C0000053C00000E8
:1070500051C000004FC000004DC000004BC00000F8
:1070600049C0000047C00000090212000101008071
:107070003209040000000000000012011001FF00AE
:1070800000080912575405010102000110035500C0
:1070900053004200740069006E0079001E034F0027
:1070A000700065006E006C00610062002E005400EC
:1070B000610069007000650069000403090411247F
:1070C0001FBECFEFD8E0DEBFCDBF11E0A0E0B1E042
:1070D000E0E5FCE702C005900D92A230B107D9F7B8
:1070E00012E0A2E0B1E001C01D92A334B107E1F7C4
:1070F000CAD4ACC585CFA82FB92F80E090E041E07D
:1071000050EA609530E009C02D91822797958795C8
:1071100010F084279527305EC8F36F5FA8F30895B9
:10712000EADF8D939D930895CF93CFB7CF93DF93ED
:10713000C3954B9BE9F74B9B0BC04B9B09C04B9BEB
:1071400007C04B9B05C04B9B03C04B9B01C089C034
:107150006F93C0912602DD27C35DDD4F2F9365E558
:107160004B9B03C02F916F91E6CF0F931F934F93CB
:1071700020E040E15F9309B10C7003FB27F93F93D6
:1071800050E03BE039C01C7040642F77012F5F5FF7
:107190001EC0406819B11C702F7752501FC0406448
:1071A00009B12F770C70D1F15F5F00C023C040623E
:1071B00019B12F771C7091F15F5F00C025C00C7072
:1071C0001027515012F45D5F0000115027952C3F9D
:1071D00019B1C8F61C700127015027952C3FC8F63D
:1071E0004227499309B10C7010274F73115027950E
:1071F0002C3FA8F64695469519B11C7079F00127E9
:10720000015027952C3F98F66B5A60F3315009B125
:10721000B0F600C011E01CBB002717C03B503195F1
:10722000C31BD04011E01CBB0881033CF9F00B34B8
:10723000E9F0209124021981110F1213EDCF0936C4
:1072400051F10D3211F0013E39F700932B023F91BD
:107250005F914F911F910F912F916F91CCB3C0FD12
:1072600067CFDF91CF91CFBFCF91189520912B029F
:10727000222369F310912902112339F534303AF1B0
:107280003093290220932502109126023BE0311B06
:10729000309326021CC0009129020130B4F40AE5A3
:1072A0003091010134FD14C000930101C9E1D2E025
:1072B00013C0052710E000C000000BB91AC0052755
:1072C00010E0221F1DC010E021C04AE502C032EDCF
:1072D000432FC4E1D0E032E01AB11C605B9A0BB1DD
:1072E0001AB95CE020E865E320FF05270BB9279574
:1072F00017951C3FF0F66695B8F7B1F720FF052704
:107300000BB9279517951C3FD0F62795179517FFB2
:10731000052700001C3F0BB9B0F629913A9519F7E3
:10732000037F10912A02110FC651D0400BB911F002
:107330001093240211E01CBB08601AB1137F402F88
:10734000437F54E05A95F1F70BB91AB94BB97FCF87
:10735000809111018823A1F0F894E0911201F0913D
:107360001301329785E087BFE895789407B600FC53
:10737000FDCFF89481E187BFE895789410921101D0
:107380000895AF92BF92CF92DF92EF92FF920F9348
:107390001F93CF93DF931F92CDB7DEB78091290261
:1073A000835087FDA5C1909126024CE0A42EB12CFC
:1073B000A91AB1089501235D3D4F590111E01093C1
:1073C0000401909125029D3209F022C1883009F014
:1073D0008DC183EC809319028AE58093010110929C
:1073E0001501D9018C91807609F496C0109206019E
:1073F0002D9A11962C91222309F488C0213009F48A
:1074000087C0263021F4A4DF1093140169C027300F
:1074100009F05FC09DDF87E091E0909328028093A0
:107420002702F5018381809309019281903339F419
:1074300081114DC0E481F0E0EE0FFF1F42C0903596
:1074400061F481111EC08481811141C089E0E0E0B6
:10745000F0E080935700849111C0983549F5883049
:1074600019F08823D1F033C0F501848181112FC038
:1074700089E0E3E0F0E080935700849180930A0173
:1074800026C0883021F58481811121C089E0E2E0A5
:10749000F0E0809357008491F1CFF5018481811150
:1074A00016C089E0E1E0F0E0809357008491E6CFD8
:1074B000983369F481110BC08481811108C0E0E028
:1074C000F0E081E280935700E491E0930A0124E028
:1074D00094C02E3011F43CDF1BC0283019F438DF83
:1074E00020E08BC0F50184819581909313018093F6
:1074F0001201868180930F0187EF820F843080F71D
:10750000209310012A3031F023DF04C028E075C039
:1075100021E073C02FEF67C0D90112969C9112979A
:107520001092220211968C91811106C010922302B2
:1075300082E292E022E051C0853019F490932A0251
:107540003EC08630B1F5F9018381813019F48AE7B4
:1075500090E704C0823041F488E690E790932802D7
:107560008093270222E121C08330F1F4911108C0F9
:107570008AEB90E7909328028093270224E015C0BD
:10758000913041F48CE990E7909328028093270290
:107590002EE10BC0923041F48CE890E790932802E2
:1075A0008093270220E101C020E080E48093150150
:1075B00018C0883079F0893031F490932C0282E23F
:1075C00092E020E00AC021E08A3009F020E082E267
:1075D00092E003C08CE292E021E090932802809335
:1075E00027022F3F51F4D5018C9187FF02C01696D8
:1075F0002C9180E88093150108C0F50187818111E5
:1076000004C08681821708F4282F209300016EC0E1
:107610009091150197FF6AC0F0900F01E82EF816BF
:1076200008F4EF2CFE18F0920F01809110018C30BD
:10763000B9F4DA2C8501802F8D198E1508F052C00F
:10764000D8016D918D0180911201909113019C01DF
:107650002F5F3F4F3093130120931201E9D2EBCFFC
:107660008A3009F03FC0850123E0C22EDD24D39487
:10767000802F8A198E1508F033C0809112019091E5
:1076800013018F779927892BF9F0D0921101F89483
:10769000E0911201F0911301D8018D919D918D011E
:1076A0000C01D7BEE8951124789480911201909135
:1076B0001301029690931301809312018F779927FB
:1076C000892BB1F645DED4CFF894E0911201F09108
:1076D0001301C7BEE895789407B600FCFDCFD5CF5F
:1076E00010920501F11002C01092000110922902BF
:1076F0008091010184FF82C0809100018F3F09F4D5
:107700007DC0D82E893010F098E0D92E8D19809345
:1077100000018091190298E8892780931902DD20E1
:1077200009F45FC02091150127FF31C080910F013E
:107730008D1508F4D82E8D1980930F01209110011A
:107740008AE1A82E82E0B82E75018A2D8E198D153A
:1077500008F047C000911201109113012B3039F449
:10776000C80129835DD2F5018083298106C02930B3
:1077700021F4F8018491D5018C93BFEFAB1ABB0AB9
:107780000F5F1F4F1093130100931201DECF809102
:1077900027029091280226FF12C0AAE1B2E029E157
:1077A00032E020953095280F391F4D2D4A0FF901F1
:1077B000EA0FFB1FE491ED934A13F9CF09C0EAE108
:1077C000F2E0DC012D2D2E0F3D9131932E13FCCFD5
:1077D00001962FEF2D0D820F911D9093280280931B
:1077E00027026D2D8AE192E09BDC84E08D0D8C30C8
:1077F00019F09FEF909300018093010184E199B10A
:107800009C7031F48150D9F710922A021092240210
:107810000F90DF91CF911F910F91FF90EF90DF902C
:10782000CF90BF90AF9008959091C00095FFFCCF8E
:107830008093C6000895CF92DF92EF92FF921D9A37
:1078400080E4C82E82E4D82E8FE0E82EF12C8091BF
:10785000C00087FD11C08AE0C81AD108E108F1080C
:107860001C141D041E041F0414F00E94810085E3F3
:107870008A95F1F70000EBCF8091C6001D9AFF902A
:10788000EF90DF90CF900895D6DF803221F484E12D
:10789000CBDF80E0089581E00895CF93C82FCBDF40
:1078A000C150E9F7F1DF811182E0CF9108951F9374
:1078B000CF93DF938091C00087FFD2C0BCDF8134BB
:1078C00081F4B9DFC82FE0DF8111C2C0C23811F4E2
:1078D00080E005C0C13811F485E001C083E0A4DF79
:1078E000BBC0823411F484E103C0853429F485E0FF
:1078F000D4DF8111ADC0B0C0853569F49CDFC82FDD
:107900009ADF2C2F30E0382B220F331F30931801D1
:10791000209317019FC0863529F484E0BEDF8111D2
:1079200097C0D6CF843609F05AC085DF84DF8093B4
:10793000160181DFE0911701F0911801E11580E750
:10794000F80718F483E087BFE895C9E1D1E073DF59
:107950008993809116018150809316018111F7CF90
:10796000E0911701F0911801E11580E7F80718F090
:1079700083E087BFE89588DF81116AC007B600FC05
:10798000FDCF2091170130911801E901C258DF4F56
:10799000C9016091190149E151E0421B530B11E00B
:1079A000DA01A80FB91F1196EC91119770E07E2BA8
:1079B000FC010B0117BFE89511248C179D0721F0DE
:1079C000029612966C91ECCF85E0F90187BFE8959D
:1079D00007B600FCFDCF81E187BFE8953DC0843745
:1079E000D1F429DF28DF8093160125DF4DDF8111D7
:1079F0002FC0E0911701F09118018591F0931801C3
:107A0000E093170111DF80911601815080931601D8
:107A10008111EFCF21C0853749F436DF811118C0BD
:107A20008EE102DF85E900DF8FE059CF813591F4E7
:107A300029E088E190E00FB6F894A8958093600063
:107A40000FBE2093600020DF811102C080E1ECDED8
:107A500082E007C019DF4DCF80E1E6DE81E001C0A2
:107A600080E0DF91CF911F91089582E08093C00064
:107A700088E18093C10086E08093C20080E180931A
:107A8000C400509A08950F931F93CF93DF9384B748
:107A9000877F84BF88E10FB6F894809360001092CE
:107AA00060000FBEE0E0F0E085919491019621F432
:107AB00081E08093050102C01092050181E085BF3D
:107AC00082E085BF85E080938100259A80916900DE
:107AD000826080936900E89A539A2D9A809184007D
:107AE00090918500803A9F40C8F32D9853987894E0
:107AF00081E080938100B9DF00E0C0E0D0E010E0D9
:107B000040DCD5DE813019F41092060107C08230C6
:107B100029F480910501882309F453C08091040160
:107B2000882349F0809106018B3028F0809105016F
:107B3000882309F446C080910401811108C0809116
:107B40000601843020F0809105018823D1F18091D5
:107B50001401811136C08091840090918500B09B02
:107B60001AC0B09A20910401222361F02D9A209727
:107B700021F421E0011120E0022F011102C0D250B6
:107B800001C0DE5F1F5F153F30F0209106012F5FBF
:107B90002093060110E020910401222329F0C81748
:107BA000D90708F0ADCF0BC0812F8F7D81508F306A
:107BB00020F08FEB810F8F3010F42D9AA1CF2D98EC
:107BC0009FCF2D98259885E08093810010928500A5
:107BD0001092840080911401882349F080918400E0
:107BE00090918500803A9F4010F4CBDBF3CF109248
:107BF000810010928500109284001DBA10926900D5
:107C000081E085BF15BEF894E0910201F091030177
:107C1000099580E090E0DF91CF911F910F91089539
:107C2000F999FECF92BD81BDF89A992780B5089544
:107C3000262FF999FECF1FBA92BD81BD20BD0FB688
:107C4000F894FA9AF99A0FBE01960895F894FFCF26
:027C5000FF5AD9
:040000030000700089
:00000001FF
